:020000040800F2
:1000000048410020110300087D2E0008CD2C000877
:100010004D2E0008E52400082538000800000000E7
:10002000000000000000000000000000790200084D
:100030003927000800000000BD020008B1340008A4
:100040002B0300082B0300082B0300082B030008D8
:100050002B0300082B0300082B0300082B030008C8
:100060002B0300082B0300082B0300082B030008B8
:100070002B0300082B0300082B0300082B030008A8
:100080002B0300082B0300082B0300082B03000898
:100090002B0300082B0300082B0300082B03000888
:1000A0002B0300082B0300082B0300082B03000878
:1000B0002B0300082B0300082B0300082B03000868
:1000C0002B0300082B0300082B0300082B03000858
:1000D0002B030008393500086D350008DD350008B0
:1000E0002B0300082B0300082B0300082B03000838
:1000F0002B0300082B0300082B0300082B03000828
:100100002B0300082B0300082B0300082B03000817
:100110002B0300082B0300082B0300082B03000807
:100120002B0300082B0300082B0300082B030008F7
:1001300000F002F800F090F80AA090E8000C824469
:100140008344AAF10107DA4501D100F085F8AFF246
:10015000090EBAE80F0013F0010F18BFFB1A43F0A5
:1001600001031847088C0000288C0000103A24BFB7
:1001700078C878C1FAD8520724BF30C830C144BF0C
:1001800004680C607047000000230024002500264E
:10019000103A28BF78C1FBD8520728BF30C148BFEA
:1001A0000B6070476E2900F0A181702900F08782F2
:1001B000662906F00886652906F00586672906F097
:1001C0000286612906F0018603681B0A28BF41F0F8
:1001D0008001692900F04E81642900F04B81752966
:1001E00000F048816F2900F01482782900F05382D2
:1001F000E92901F05D80E42901F05A80F52901F038
:100200005780EF2900F01182F82900F0528203682C
:10021000DB0928BF41F08001632901F014807329B4
:1002200001F01980E32901F03780F32901F03C80C7
:10023000002070471FB501F0C3F804000020002122
:1002400005F034FF401C60600020002105F018FF1D
:10025000E0601FBD10B510BD01F0B6F91146FFF703
:10026000E9FF03F095FB01F0D4F903B4FFF7F2FFC7
:1002700003BC03F026FB0000224B19680868B0E8B5
:10028000F00F80F30988BFF36F8F4FF0000080F309
:1002900011884EF00D0E70470000000006480068FF
:1002A000006880F3088862B661B6BFF34F8FBFF372
:1002B0006F8F00DF00BF00BF08ED00E0EFF30980A3
:1002C000BFF36F8F0F4B1A6820E9F00F106008B56D
:1002D0004FF0500080F31188BFF34F8FBFF36F8F43
:1002E00005F0EEF84FF0000080F31188BDE80840FB
:1002F00019680868B0E8F00F80F30988BFF36F8FC2
:10030000704700BF84000020EFF3058070470000B5
:100310000948804709480047FEE7FEE7FEE7FEE799
:10032000FEE7FEE7FEE7FEE7FEE7FEE704480549D5
:10033000054A064B70470000C5340008310100082B
:10034000483B002048410020483D0020483D002017
:10035000704700000FB4044910B503AA029800F0DA
:100360007FFF10BC5DF814FB6C0000200FB4044943
:1003700010B503AA029800F073FF10BC5DF814FBDF
:100380006C0000200FB41CB5084B06AA7B446946DC
:100390000090059800F035FF04460020694600F003
:1003A00043FF20461CBC5DF814FB0000990E0000C2
:1003B00070B5044685690068C10601D5302600E0A5
:1003C0002026C00707D070BDD4E9012130469047F0
:1003D000206A401C20626D1EF6D570BD70B50446C3
:1003E00085690078C00707D170BDD4E901212020BC
:1003F0009047206A401C20626D1EF6D570BD0968CA
:100400004A0501D540B27047C905FCD500B2704716
:1004100009684A0501D5C0B27047C905FCD580B24C
:10042000704770B50C460546012A05D0287880062D
:1004300000D5EA69002302E0012305E05B1C93423A
:1004400002D2E05C0028F9D1A869E618C01AA861B8
:10045000286A184428622846FFF7AAFF04E0D5E975
:10046000012114F8010B9047B442F8D32846FFF756
:10047000B5FF70BD2DE9F0410646002410687529CE
:10048000314616A510D0FFF7BAFF002802DA404225
:1004900013A507E031688A0701D512A502E04907D4
:1004A00004D511A5012401E0FFF7B2FF00210A22C3
:1004B00006F1240709E0B0FBF2FCB0FBF2F302FB0B
:1004C0001C00303078541846491C0028F3D12346CC
:1004D0002A463046BDE8F04100F0A7BA000000000F
:1004E0002D0000002B0000002000000011680268B1
:1004F000006A530501D508700AE0D30501D50880CC
:1005000006E0130603D5C217C1E9000200E0086047
:10051000012070472DE9FF5F15468A460446DFF843
:10052000AC80F8440027D8E900103E46CDE9001021
:1005300010E03AF816106A4602A800F0F7FE411CD7
:1005400007D02178890603D5E269391891420DD880
:100550000744761C2078800602D5E069B84205DDA4
:10056000AE42E6DB3AF816000028E2D1A069C01BD3
:10057000A0612046FFF71CFFD8E90010CDE900106C
:10058000002017E03AF818106A4602A800F0CEFEE4
:10059000B0F1FF3F81460BD000250DF1080B05E0BF
:1005A000D4E901211BF8050090476D1C4D45F7D398
:1005B00008F10100B0428046E4DB206A3844206242
:1005C0002046FFF70BFFBDE8FF9F0000BA86000042
:1005D00030B4002100F1240408E002F00705D2083D
:1005E000303542EA4372DB086554491C52EA030580
:1005F000F3D10468002310A2250707D5A40600D470
:1006000021B1C46901230DA2641EC46130BC00F095
:100610000CBA10B5044621461068FFF7F9FE0246F1
:100620002046BDE810400023D2E7D21D22F007018A
:10063000D1E90023CCE700000000000030000000FA
:10064000F0B40D460188090502D5214C7C4402E036
:100650001F4C7C440E34002100F1240608E002F017
:100660000F071209E75D42EA03721B097754491C20
:1006700052EA0307F3D102780023120704D5702D44
:1006800006D009B1022311342246F0BC00F0CDB9E6
:1006900001231034F8E770B504460D462146106872
:1006A000FFF7B6FE024629462046BDE8704000230B
:1006B000C6E7D21D22F00703D3E90023C0E7036891
:1006C000126843F0200303600823C3610023B7E7E7
:1006D000988500002DE9F05F894604464FF0000A36
:1006E000DFF874B1FB44C0F820A02046E1688847D9
:1006F000002874D0252806D0D4E901219047206A2B
:10070000401C2062F1E700265F462046E1688847EA
:100710002028054607DB312D05D2781910F8200C6A
:1007200008B10643F1E7B00701D526F00406C4F886
:100730001CA00027C4F818A02A2D09D0284603F0D1
:10074000B9F838B304EB8708303DC8F8185019E001
:1007500059F8041B204604EB87029161E168884741
:10076000012F054618D1E069002820DA26F020067E
:100770001DE0D8F8180000EB800005EB4000303891
:10078000C8F818002046E1688847054603F092F84B
:100790000028EED1012F0AD02E2D08D12046E16885
:1007A00088477F1C0546022F46F02006C4DBA0695F
:1007B000002803DA404246F00106A061F00701D0AC
:1007C00026F010066C2D0BD0682D09D04C2D39D099
:1007D0006A2D35D0742D35D07A2D33D016E038E01F
:1007E000E1682F4620468847B842054609D16C2F5C
:1007F00026D04FF48060E1680643204688470546CE
:1008000004E06C2F1AD04FF4807006430DB3A5F1AD
:100810004100192802D8203546F400664A46294688
:10082000204626604E46FFF7BDFC80B101280BD064
:10083000F61D26F0070000F1080956E74020E4E71E
:100840008020D8E70020D6E706F104094DE72846C6
:1008500052E7206ABDE8F09F2885000030B50546C4
:100860000B462A4613F8014B12F8010B08B1A042BF
:10087000F8D01CB1002802D06D1CF1E7284630BD2D
:1008800010B5431C02E010F8011B71B18107FAD1C9
:100890004FF0013202C88C1A8C4314EAC211F9D00D
:1008A000C01A0A0603D0C01E10BDC01A10BD0A042B
:1008B00001D0801E10BD0902FCD0401E10BD421E9A
:1008C00012F8013F002BFBD111F8013B002B02F87D
:1008D000013BF9D17047032A40F2308010F0030C3D
:1008E00000F0158011F8013BBCF1020F624498BF83
:1008F00011F801CB00F8013B38BF11F8013BA2F120
:10090000040298BF00F801CB38BF00F8013B11F09A
:10091000030300F02580083AC0F0088051F8043B3A
:10092000083A51F804CBA0E80810F5E7121D5CBFA7
:1009300051F8043B40F8043BAFF30080D20724BFDA
:1009400011F8013B11F801CB48BF11F8012B24BF6E
:1009500000F8013B00F801CB48BF00F8012B7047BD
:1009600010B5203AC0F00B80B1E81850203AA0E84A
:100970001850B1E81850A0E81850BFF4F5AF5FEA7E
:10098000027C24BFB1E81850A0E8185044BF18C931
:1009900018C0BDE810405FEA827C24BF51F8043BD8
:1009A00040F8043B08BF7047D20728BF31F8023B2C
:1009B00048BF11F8012B28BF20F8023B48BF00F8C0
:1009C000012B704702F0FF0343EA032242EA02428E
:1009D00000F0CEBC4FF0000200B513469446964698
:1009E000203922BFA0E80C50A0E80C50B1F1200142
:1009F000BFF4F7AF090728BFA0E80C5048BF0CC0F0
:100A00005DF804EB890028BF40F8042B08BF70474D
:100A100048BF20F8022B11F0804F18BF00F8012BBF
:100A2000704770477047704770472DE9F0470D4693
:100A300099469246044600F124080168880604D5C8
:100A4000E06921F01001216000E00120A84201DDF1
:100A5000471B00E00027A1697A1902EB0900081A78
:100A6000A0612078C00602D42046FFF7A1FC002632
:100A700008E0D4E901211AF806009047206A401CDA
:100A8000761C20624E45F4DB2078C0060AD520464D
:100A9000FFF78EFC06E0D4E9012130209047206A60
:100AA000401C2062381EA7F10107F4DC07E0D4E9FE
:100AB000012118F805009047206A401C2062281E7A
:100AC000A5F10105F3DC2046FFF788FC207800063D
:100AD00002D50220BDE8F0870120FBE770472DE931
:100AE000FF4F0C461E464FF0FF378BB0D2E9000196
:100AF000DDF860800A908A46C1F30A5505B93D4683
:100B0000002108464FF00000BAF1000F00F4400049
:100B100005DA00EB80004FF4400101EA50004FEA93
:100B20009059B9F1010F00DDB9460A9850EA4A0020
:100B30000ED044F61050A5F2FF3545432F14B8F1FE
:100B4000000F1ED07542291E1EDDC9F100021CE0F7
:100B5000B8F1010F4FF0000001D0302103E0F24363
:100B600005E02154401CB042FBDB3046002200214E
:100B700021540B99C1F80880C1E900200FB0BDE8ED
:100B8000F08FBD1B6D1CDEE74A4600DA694206A8FD
:100B900000F0A0FC06AB93E8070003AB83E8070076
:100BA00050460A9900F07EFD8DE80700A0F5005040
:100BB0001F3800900398002D0ADD42F21F014A46BB
:100BC0000844002303A90390684600F0E7FF09E00A
:100BD000A0F500504A461F38002303A90390684639
:100BE00000F0F1FF8DE807000004000C03D04FF087
:100BF000FF30410800E01046B8F1000F03D000229A
:100C0000009215461EE0751E05D400F0DDFB303263
:100C100062556D1EF9D5B3460122084302D0002269
:100C20007F1C04E02078302801D100227F1E002A9A
:100C3000099784D01DE0112D07DA00F0C5FB303292
:100C400062556D1C50EA0102F5D1084302D00098AC
:100C5000C8B10EE00021681E05E0235C625C6354AD
:100C60002254401E491C8142F7DBAB46A81B401EA4
:100C70000990002004F80B000B98099AC0F808802E
:100C8000C0E9002B7AE711264FF0000857E72DE95D
:100C9000F04F88460446D21D22F0070191B0D1E9F9
:100CA0000001CDE90A0102F0F1FD02460B98C00FE8
:100CB00001D02D2007E02068810701D52B2002E01C
:100CC000202101EAC000032A099001D0072A05DB90
:100CD00003464146204600F0BDFB0BE1207880062C
:100CE00001D5E06900E00620B8F1650F814606D025
:100CF000B8F1660F18D0B8F1670F70D131E000205D
:100D0000B9F1110F009001DB112301E009F101039A
:100D10000AAA01A90CA8FFF7E2FEDDE90C70002683
:100D200009F10105834647E001204B4600904FF052
:100D300000470AAA01A90CA8FFF7D1FEDDE90DB012
:100D40000C995D46002610B909F101000D18B9EBA8
:100D5000050003D4C0F1FF3609F10105A5EB090038
:100D60002BE0B9F1010F01DA4FF001090020B9F1D0
:100D7000110F0090484601DD112300E003460AAA46
:100D800001A90CA8FFF7ABFEDDE90C704D4600266B
:100D90008346207800070AD4AB4500DA5D4601A8F7
:100DA000012D04DD411911F8011C302907D04F45F0
:100DB00002DA17F1040F04DA012082460FE06D1EFB
:100DC000EEE7002F02DCED1B3E4403E0781CA84256
:100DD00000DD7D1CB81B00F1010A4FF000472078B0
:100DE000000703D4AA4501DB4FF0FF3A0021B7F119
:100DF000004F0DF143088DF8431024D002202B231F
:100E0000002F01DA7F422D230A21021EA0F10100EA
:100E100000DC5FB197FBF1FC97FBF1F201FB1C7C5E
:100E200017460CF1300C08F801CDEEE7A8F10100EF
:100E300003702188090501D5452100E06521A0F155
:100E4000010800F8011C09980FA9A1EB0807FF1D74
:100E500000B10120411901EBEA70A1693844081A78
:100E6000401EA0612078C00602D42046FFF7A0FAF9
:100E7000099828B1D4E901219047206A401C2062DA
:100E80002078C00622D52046FFF792FA1EE0002EF9
:100E900004DBB34502DD01A8805D00E03020D4E929
:100EA00001219047206A401C2062761CAAF10100B3
:100EB0005FEA000A0AD100F083FAC0680168405C6A
:100EC000D4E901219047206A401C2062281EA5F128
:100ED0000105DCDC07E0D4E9012118F8010B90479B
:100EE000206A401C2062381EA7F10107F3DC20466F
:100EF000FFF774FA032011B041E600002DE9F04F2E
:100F000004460D46D21D22F0070089B0D0E90097B3
:100F10004846394602F0BAFC0246F80F01D02D23AC
:100F200007E02068810701D52B2302E0202101EA98
:100F3000C0038DF820300BB1012000E00020032A0F
:100F4000824601D0072A04DB2946204600F082FAB7
:100F50003FE12078800601D40D2500E0E569C7F364
:100F60000A560D2D49DA00214FEA175B08464FF06B
:100F70000000002F00F4400007DA00EB80004FF47F
:100F8000400100EBD07001EA60008115012901DD0C
:100F90004FF0FF3100224FEA850CBCF1180F06D349
:100FA0001346ACF118004FF08052C24003E04FF4FA
:100FB000801323FA0CF30CF10C0CBCF1200F04D3BA
:100FC000ACF1200C09FA0CF001E007FA0CF0002952
:100FD0004FF0004801DD18B90FE00ED140450CD3A9
:100FE00019EB02095F4121B9404502D19F4329EA2B
:100FF0000209BBEB175F00D0761C2088000502D5E4
:101000007B48784402E07A487844193808AA3023AB
:1010100002F80A30037C0AF10101002E0AF1020AEB
:1010200053546A4602DC4FF0300101E04FF03101C9
:101030004FF001088DF8001002D0A6F2FF3603E051
:1010400059EA470100D06B4E002D02DC21780907D8
:1010500004D54FF002082E218DF80110C44600215E
:101060000BE0C7F303433F01C35C491C6D1E02F84C
:101070000830052908F1010801DA002DF1DC002112
:101080000CE000EB1973491C1B786D1E082902F84F
:1010900008304FEA091908F1010801DA002DF0DCE7
:1010A00021688B0602D516E0A8F10108E04505DDB0
:1010B00002EB080313F8013C302BF5D0B8F1000F18
:1010C00009DD02EB080313F8013C2E2B03D10907BD
:1010D00001D4A8F10108002D05DD3E2102F8081019
:1010E0006D1E08F10108407C002E02F8080008F18E
:1010F000010804DA2D20764202F8080002E02B20D5
:1011000002F808000A214FF47A70864208F10108BB
:101110000BDB96FBF0F3303302F8083096FBF0F36C
:1011200008F1010800FB136601E0642E0CDB64206B
:1011300096FBF0F3303302F8083096FBF0F308F139
:10114000010800FB136601E00A2E06DB96FBF1F0B6
:10115000303002F8080008F1010896FBF1F001FBBD
:101160001060303002F80800A16908F1010808EBAE
:10117000050202EB0A00081AA0612078C00602D41A
:101180002046FFF715F9216A08AE01EB0A0020623C
:1011900004E0D4E9012116F8010B9047BAF1010AE5
:1011A000F7D22078C00602D52046FFF701F96E4637
:1011B00009E016F8010B3E280FD0D4E90121904731
:1011C000206A401C2062B8F10108F2D22046FFF7E5
:1011D00005F909B00320BDE8F08F206A2844206299
:1011E00003E0D4E90121302090476D1EEBD3F8E7EE
:1011F0002E7C000002FCFFFF01694A1C0261087896
:10120000704700B58FB0CDE9013100210591054946
:101210007944CDE9031011466846FFF75BFA0FB039
:1012200000BD0000E5FFFFFF0A6802F8010B0A603D
:10123000704710B5436913B1AFF3008001E0FFF7C9
:10124000F0F8012010BD127800F124010A7000228C
:101250004A700122EDE711684FF0FF32E9E7000024
:10126000074B70B50D467B44FFF7CBFF044628467D
:1012700000F0A2F910B14FF0FF3070BD204670BDF4
:101280000F27000010B5436913B1AFF3008001E0F0
:10129000FFF740F9012010BD128800F1240182847B
:1012A0000022C2840122EDE711684FF0FF32E9E726
:1012B0002DE9F0418046D21D22F007020025D2E937
:1012C0000002F52915A614D0011E72F1000106DAFC
:1012D0000023D0EB030063EB020211A608E0D8F86C
:1012E00000108B0701D50FA602E0490701D50EA615
:1012F00001251146002408F1240704E000F064F8F9
:1013000030323A55641C50EA0102F7D12B4632467E
:1013100021464046BDE8F041FFF787BB00000000D2
:101320002D0000002B0000002000000070B51646C4
:101330000C46054600F03CF8036893F801010128CB
:1013400006D0FF2C0FD8185D68B101202C7070BD3D
:10135000D3F807013246214603F207130344284617
:10136000BDE8704018474FF0FF3070BD4FF00002ED
:101370000429C0F0128010F0030C3FF42DABCCF127
:10138000040CBCF1020F18BF00F8012BA8BF20F815
:10139000022BA1EB0C01FFF71FBB5FEAC17C24BF4E
:1013A00000F8012B00F8012B48BF00F8012B704713
:1013B00010B500F005F8001D10BD00BFF14C000095
:1013C00000487047083B002030B5B0F10A024FEAF0
:1013D000900E71F100034EEA817EB0EB0E0061EBDE
:1013E00091014FEA101E4EEA017E10EB0E0041EB18
:1013F00011114FEA102E4EEA016E10EB0E0041EB78
:1014000011214FEA104E4EEA014E10EB0E0041EB57
:101410001141401841F100014FEAD00040EA41700B
:101420004FEAD10110EB80054FEA810444EA907441
:1014300044EB01046D1944EB0404521BA3414FF02B
:10144000000348BF0A3200D530BD401C41F1000105
:1014500030BD00002DE9F0411F4604460326016817
:10146000072A01F4006004DB08B116A505E016A503
:1014700003E008B115A500E015A521F010002060DB
:10148000A069C01EA0610FB1401EA0612046FEF7FA
:101490008FFF4FB1D4E9012138469047206A401CA4
:1014A0002062C01C206206E0206AFAE7D4E901212C
:1014B00015F8010B9047761EF8D22046FEF78EFFF6
:1014C000BDE8F0814E414E006E616E00494E46000F
:1014D000696E66002DE9F047814616468AB03548A8
:1014E00078440DC88DE80D0032487844801C03AC68
:1014F0000DC884E80D0041F69B300844372190FB6D
:10150000F1F290FBF1F5A5F1800501FB12041B3C03
:1015100002D56442012000E00020DFF898A0804658
:101520000027FA44AAF1BE0A0EE0E0070AD03246CC
:10153000684607EB470101230AEB810100F043FBFA
:101540008DE8070064107F1C002CEED1194F7F44FA
:10155000AE3F19E0E80715D007EB04100DF1180AAB
:1015600090E80E008AE80E00C068F04201D1981998
:1015700008903246012306A903A800F024FB03AB20
:1015800083E807006D10641C002DE3D14FF00103C8
:1015900032466946B8F1000F03A802D000F0FEFA07
:1015A00001E000F010FBC9E90001C9F808200AB009
:1015B000BDE8F087E0770000007B00F08000704716
:1015C00000487047E83A00207546FFF7F9FFAE463D
:1015D00005006946534620F00700854618B020B53F
:1015E000FEF7A4FEBDE820404FF000064FF00007D4
:1015F0004FF000084FF0000B21F00701AC46ACE8BB
:10160000C009ACE8C009ACE8C009ACE8C0098D4627
:10161000704710B50446AFF300802046BDE8104087
:10162000FEF723BE4FF0013C50F8042B51F8043B69
:101630009A4221D1A2EB0C03934313EACC1317D1A6
:1016400050F8042B51F8043B9A4215D1A2EB0C033D
:10165000934313EACC130BD150F8042B51F8043BFD
:101660009A4209D1A2EB0C03934313EACC13DBD0CB
:101670004FF00000704700BFD01A01BAB1FA81F1F3
:1016800001F0180122FA01F0CB40C1F12001DBB2D8
:10169000C0B2C01A2CFA01F3D11A914311EAC31156
:1016A000E6D170475FEA400C08BF91F0000F4FEAA7
:1016B0008C234FEAC12243EA51514FEA1C5018BF14
:1016C00000F5F0404FEA300018BF41F000415FEAFA
:1016D0006C5C00F02980BCF1FF3F08BF40F0804007
:1016E0007047130C06BF12044FF0100C4FF0000CA3
:1016F000130E04BF12020CF1080C130F04BF1201E9
:101700000CF1040C930F04BF92000CF1020CD30FE8
:1017100004BF52000CF1010C11464FF00002A0F181
:101720001F00A0EB0C00704711F0004F08BF70477E
:1017300031F000413FF4D5AF0B0C06BF09044FF068
:10174000100C4FF0000C0B0E04BF09020CF1080C3A
:101750000B0F04BF09010CF1040C8B0F04BF8900AF
:101760000CF1020CCB0F04BF49000CF1010CCCF1C1
:101770002003A0EB0C0022FA03F302FA0CF241EA78
:10178000030100F10100704720F07F4C80EA030064
:1017900023F07F47ACEB070303F57C5300F00040D8
:1017A00003F1FF032DE980494FEA154B09B44FEAD5
:1017B000144325EA0B4E24EA03480FF2042606EBF5
:1017C000132749083E785FEA320203FB0667C7F534
:1017D000000707FB06F64FEA54374FEAD64606F1F4
:1017E000020607FB066CCCF1005C4FEA1C472CEAB2
:1017F000074C07FB06F40CFB06F504EB15464FEA15
:10180000961634BF00204FF000404FEAD13706FB58
:1018100007FC4FEA1C4C0CFB0BF7D21B03FB0CF72D
:1018200061EB07010CFB0EF7B0EB074072EB1742C0
:101830000CFB08F734BFA2EB0742B2EB074261EBA7
:1018400017414FEA0C444FEA910706FB07FC4FEAA9
:101850001C4C0CFB0BF7B0EBC74072EB573203FB91
:101860000CF734BFA2EBC742B2EBC74261EB573172
:101870000CFB0EF7B0EBC70072EB57720CFB08F7CE
:1018800034BFA2EBC702B2EBC70261EB5771039FF3
:101890004FEA816141EA921104EBCC044FEAD1375F
:1018A0004FEA826206FB07FC42EA90124FEA806030
:1018B0004FEA1C4C0CFB0BF7D21B03FB0CF761EB44
:1018C00007010CFB0EF7B0EB074072EB17420CFB65
:1018D00008F734BFA2EB0742B2EB074261EB1741B6
:1018E0004FEA8C554FEA910704EB9C2406FB07FC5A
:1018F0004FEA1C4C0CFB0BF7B0EBC74072EB5732B6
:1019000003FB0CF734BFA2EBC742B2EBC74261EB5B
:1019100057310CFB0EF7B0EBC70072EB57720CFBA4
:1019200008F734BFA2EBC702B2EBC70261EB5771F5
:1019300015EB4C254FEA816141EA92114FEA826230
:101940004FEAD13742EA901206FB07FC44F100044B
:101950004FEA80604FEA1C4C0CFB0BF7D21B03FBD9
:101960000CF761EB07010CFB0EF7B0EB074072EBD5
:1019700017420CFB08F734BFA2EB0742B2EB074259
:1019800061EB174115EB1C154FEA813141EA924199
:101990004FEA823242EA90424FEA80304FEA0C76B8
:1019A00044F1000448EA03434EEA0B484FF0000EAE
:1019B000B2EB080C71EB030724BF624639464EEBCD
:1019C0000E0E4FF0000B0018524149414BEB0B0B30
:1019D000B2EB080C71EB03077BF1000B24BF6246EE
:1019E00039464EEB0E0E4FF0000B001852414941A4
:1019F0004BEB0B0BB2EB080C71EB03077BF1000B0D
:101A000024BF624639464EEB0E0E51EA020718BF5C
:101A100046F0010616EB0E7655F1000254F1000176
:101A200003D5BDE88901BDE80088BDE88901BDE8AE
:101A30000048B619524141EB0101A3F1010370477F
:101A400080807F7E7D7C7B7A7978777676757473FB
:101A5000727171706F6E6E6D6C6C6B6A6A696868BA
:101A6000676666656464636362616160605F5F5E50
:101A70005E5D5D5C5C5B5B5A5A59595858575756C6
:101A8000565555555454535352525251515050502B
:101A90004F4F4F4E4E4D4D4D4C4C4C4B4B4B4A4A7D
:101AA0004A494949484848474747474646464545C1
:101AB00045444444444343434342424242414141FA
:101AC000002B9C4630D477002BD01CB54FEA37074B
:101AD00003B44FF010004FF01001BAF1000F06D020
:101AE000BCF1000FDCBF40F0080040F008014FF0EF
:101AF00000000FBCBDE810400BF1010BBBF1010F62
:101B000008BF5FEA170722BF12F1010211F10101BC
:101B10004FF0004143F1000300F0004043EA0000B1
:101B20007047F9D35708D0E746EA064613F1400F4D
:101B30004FEA16461FDD13F1200FDFBF16430A469A
:101B4000002120335B42BED0C3F1200746EA06469F
:101B500002FA07F74FEA164646EA0706C3F12007DE
:101B600022FA03F201FA07F721FA03F14FF000031A
:101B700042EA0702A7E746EA020646EA06464FEAB5
:101B8000164646EA0106BCBF46EA0646360C4FF04A
:101B900000034FF000024FF0000194E72DE9804C64
:101BA0009A46934670B491E8380007C831EA400C71
:101BB00048BF34EA430C03D5FFF7E6FDFFF780FF8B
:101BC000F0BCBDE8008C2DE9804C9A46934670B479
:101BD00091E8380007C810F0804F08BF13F0804F1D
:101BE00003D100F005F8FFF76BFFF0BCBDE8008CF7
:101BF00020F07F4780EA030023F07F4C07EB0C03C3
:101C0000A3F57C5300F00040A3F1FE0392F0000F17
:101C100000F0B38095F0000F00F077802DE90149C6
:101C20004FEA11404FEA144621EA004800FB06FC47
:101C300024EA064708FB06F607FB08F800FB07F74F
:101C400018EB06484CEB164C4FEA124B18EB0748C2
:101C50004FEA15464CEB174022EA0B4E0BFB06FCF5
:101C600025EA06470EFB06F607FB0EFE0BFB07F701
:101C70001EEB064E4CEB164C4FF000061EEB074ECB
:101C80004CEB174B18EB0B0840F1000018EB0E0B58
:101C900058EB000840F100008F1A4FF000013CBFE4
:101CA000C943661B14BFB5EB040C00213CBFC943FC
:101CB000F61B4FEA17444EEA8E0E27EA04454FEA18
:101CC0001C4704FB07622CEA074C05FB07F70CFBDB
:101CD00005F604FB0CFC16EB074642EB174216EB2D
:101CE0000C4642EB1C421BEB060658EB020241413C
:101CF00046EA9E0601D5BDE80189B619524141EB7D
:101D00000101A3F10103BDE801894FEA14454FEA3F
:101D1000114724EA054621EA074C05FB07F406FBB8
:101D200007F70CFB06F105FB0CFC11EB074144EB3C
:101D300017444FEA124711EB0C4144EB1C4422EAD2
:101D4000074C05FB07F206FB07F70CFB06F605FB45
:101D50000CFC16EB074642EB174216EB0C4642EB27
:101D60001C456A1854F1000148BF7047B61952412A
:101D700041EB0101A3F10103704795F0000F37D04B
:101D80004FEA11424FEA144721EA024624EA074C7F
:101D900002FB07F106FB07F70CFB06F402FB0CFC49
:101DA00014EB074441EB17414FEA154714EB0C4481
:101DB00041EB1C4125EA074C02FB07F506FB07F740
:101DC0000CFB06F602FB0CFC16EB074645EB174531
:101DD00016EB0C4645EB1C42121951F1000148BFAD
:101DE0007047B619524141EB0101A3F1010370475D
:101DF0004FEA14454FEA114724EA054621EA074C09
:101E000005FB07F106FB07F70CFB06F24FF0000697
:101E100005FB0CFC12EB074241EB174112EB0C42A5
:101E200051EB1C4148BF7047921841EB0101A3F1EF
:101E300001037047F8B54FF4807631465948FEF7F4
:101E4000C9FD59A35AA25EA15648FEF79BFA554810
:101E500001F0D8FC4FF49677384601F057FD5EA1AB
:101E60006148FEF7FBFC614C0025C4E900500FE01F
:101E7000206859A1401C20605B48FEF7EFFC6060C1
:101E8000642001F043FD2068642801DD256002E044
:101E900060680028ECD000F0EBFB31464148FEF7CB
:101EA00099FD53A0009057A358A25AA13D48FEF7B0
:101EB00069FA3C4801F0A6FC4FF47A7001F026FD67
:101EC0005CA14948FEF7CAFCC4E900500FE0206855
:101ED00058A1401C20604448FEF7C0FC60606420AC
:101EE00001F014FD2068642801DD256002E06068CF
:101EF0000028ECD000F0BCFB52A001F083FC384677
:101F000001F004FD52A13848FEF7A8FCC4E90050D6
:101F10000FE020684EA1401C20603348FEF79EFC75
:101F20006060642001F0F2FC2068642801DD256017
:101F300002E060680028ECD000F09AFB31461948B6
:101F4000FEF748FD00F094FB42A247A11548FEF7BA
:101F500019FA14494AA0FEF709FA124801F052FC96
:101F6000384601F0D3FC4AA11F48FEF777FCC4E9CC
:101F700000500FE0206846A1401C20601A48FEF780
:101F80006DFC60600A2001F0C1FC2068642801DD5E
:101F9000256002E060680028ECD0BDE8F84000F061
:101FA00067BB0000F8010020313838330000000022
:101FB0003131362E3139382E3232372E313037002A
:101FC00041542B514D544F50454E3D302C222573DA
:101FD000222C25730D0A00002B514D544F50454EB5
:101FE0003A20302C300000008C0D00201C00002016
:101FF000736D6172745F6C756767616765393037DF
:102000002100000061646D696E000000626332307F
:102010005F31000041542B514D54434F4E4E3D30E3
:102020002C222573222C222573222C222573220D8B
:102030000A0000002B514D54434F4E4E3A20302C95
:10204000302C300041542B43434C4B3D3F0D0A0094
:102050004F4B00007379732F626332302F737562B8
:10206000746F70696300000041542B514D545355F7
:10207000423D302C312C222573222C300D0A0000D9
:102080006174737472203D202573200D0A000000D6
:102090002B514D545355423A20302C312C302C309A
:1020A0000000000038B50121042001F0F3F84FF4DE
:1020B0008054ADF8004010208DF8030003200A4D35
:1020C0008DF802006946284600F07EFB214628462E
:1020D00000F001FC4FF47A7001F018FC214628460C
:1020E00000F0F7FB38BD0000000801402DE9F04189
:1020F000002521A001F086FB4FF47A74204601F000
:1021000005FC204601F002FC204601F0FFFB00F038
:10211000AFFA1DA001F076FB4FF49676304601F041
:10212000F5FB1DA11F48FEF799FB1F4C606000F0F6
:102130009FFA4FF4FA770FE06D1C00F099FA12A0A5
:1021400001F060FB384601F0E1FB13A11548FEF7F2
:1021500085FB6060642D02DC60680028ECD000F034
:1021600087FA12A001F04EFB304601F0CFFBBDE82C
:10217000F04100F07DBA000041542B51474E5353BB
:10218000433D310D0A00000041542B51474E53533B
:10219000433F0D0A000000002B51474E5353433A72
:1021A000203100008C0D00201C00002041542B51D8
:1021B000474E535352443D224E4D45412F524D43BD
:1021C000220D0A002DE9F041554C0020A06055A0D9
:1021D000FEF7CCF858A001F015FB4FF49675284691
:1021E00001F094FB5648FEF7B5F856A0FEF7BEF88E
:1021F00058A15348FEF732FB606000F039FA60687E
:102200000FE055A0FEF7B2F800F032FA4AA001F054
:10221000F9FA284601F07AFB4EA14948FEF71EFB69
:1022200060600028EDD053A001F0ECFA284601F0E0
:102230006DFB53A14248FEF711FB0127606008B314
:102240003F4951A0C4F80870FEF790F800F010FA6A
:10225000284601F05BFB50A001F0D4FA284601F0BB
:1022600055FB00F005FA4EA001F0CCFA284601F02B
:102270004DFB4EA13248FEF7F1FA606000F0F8F92C
:10228000002615E02E494CA00831DDE7761C00F051
:10229000EFF943A001F0B6FA642001F037FB43A147
:1022A0002748FEF7DBFA6060642E01DDA76002E0DC
:1022B00060680028EAD045A001F0A4FA284601F0A1
:1022C00025FB24A11E48FEF7C9FA606040B11C49F5
:1022D00041A0FEF74BF800F0CBF9284601F016FBC1
:1022E00045A001F08FFA284601F010FB45A11448E3
:1022F000FEF7B4FA606040B1114944A0FEF736F829
:1023000000F0B6F9284601F001FB44A001F07AFA8A
:10231000284601F0FBFA00F0ABF9A068BDE8F081B7
:102320001C000020737461727420696E697420420D
:102330004332300D0A00000041540D0A0000000035
:102340008C0D0020676574206261636B204243320C
:10235000300D0A004F4B00000D0AB5A5C6ACBBFA04
:10236000D5FDD4DAC1ACBDD3B5BDC4A3BFE92E2E13
:102370002E0D0A0041542B43494D490D0A0000001F
:102380004552524F52000000BFA8B4EDCEF3203AA0
:10239000202573200D0A00004154490D0A00000059
:1023A00041542B43474154543F0D0A002B434741AE
:1023B00054543A2031000000CED2B5C4BFA8BAC5EB
:1023C000CAC7203A202573200D0A000041542B5122
:1023D00042414E443F0D0A003D3D3D3D3D3D3D3DAA
:1023E00042414E443D3D3D3D3D3D3D3D3D200D0A7C
:1023F000202573200D0A000041542B4353510D0A30
:10240000000000002B43535100000000D0C5BAC5A6
:10241000D6CAC1BF3A25730D0A00000041542B51A2
:10242000434349440D0A000070B500251EA001F089
:10243000E9F94FF49676304601F068FA00F018F9A1
:102440001DA001F0DFF9304601F060FA00F010F94C
:102450001CA001F0D7F9304601F058FA1CA11F4822
:10246000FEF7FCF91E4C606000F002F90FE06D1CF5
:1024700000F0FEF813A001F0C5F9304601F046FA6D
:1024800013A11648FEF7EAF96060642D02DC60686B
:102490000028ECD0304601F039FA00F0E9F8304677
:1024A000BDE8704001F032BA41542B4347504144DB
:1024B00044523D310D0A000041542B4347534E3DD9
:1024C000310D0A0041542B43474154543F0D0A003B
:1024D0002B43474154543A20310000008C0D00201A
:1024E0001C000020FEE700002DE9F84388468146E5
:1024F0004FF48074164621463E48FEF76BFA21469B
:102500003D48FEF767FA21463C48FEF763FA00F0C3
:10251000AFF83BA001F076F94FF49677384601F01A
:10252000F5F93AA13B48FEF799F93B4C606020B1C0
:10253000C11D13223148FEF7CEF900F099F837A2F9
:102540003BA12D48FDF71EFF2B4940A0FDF70EFFD4
:10255000294801F057F9384601F0D8F93FA12D4834
:10256000FEF77CF90025C4E900500FE020683BA18C
:10257000401C20602748FEF771F960601E2001F0C2
:10258000C5F92068642801DD256002E06068002844
:10259000ECD000F083F84346184A494615480096A7
:1025A00000F0ECFB0146134801F00AF81A2000F095
:1025B000B1FF384601F0AAF929A11648FEF74EF9F5
:1025C000C4E900500FE0206825A1401C206011489C
:1025D000FEF744F960600A2001F098F92068642849
:1025E00001DD256002E060680028ECD0BDE8F8431A
:1025F00000F03EB84C060020F8000020F802002051
:1026000041542B43434C4B3F0D0A00002B43434C9A
:102610004B3A20008C0D00201C0000207379732F92
:10262000626332302F707562746F706963000000EE
:1026300041542B514D545055423D302C302C302CB0
:10264000302C222573220D0A00000000617473747F
:1026500072203D202573200D0A0000003E0000007E
:102660002B514D545055423A20302C302C30000024
:1026700010B500F013F80848FDF76CFE642001F077
:1026800045F905490020C1F80401BDE810404FF4A8
:1026900080710148FEF79EB98C0D00202DE9F041B4
:1026A0001C4C00251CA120486560FEF7D7F860602F
:1026B00000282CD01DA11C486560FEF7CFF81A4EEB
:1026C0001B4F4FF48078606060B101206560C7F8EF
:1026D000B4013046FDF73EFE41463046C6F804518F
:1026E000FEF778F913A11048FEF7B8F860600028EB
:1026F0000DD06560C7F8B4510B48FDF72BFE41467D
:10270000C6F80451BDE8F0410748FEF763B9BDE8DB
:10271000F08100001C0000202B514D5452454356BF
:102720003A20302C300000008C0D00204F4E00006D
:10273000000022424F46460070470000F8B50121D4
:102740001D2000F0A7FD01211B4800F08FF84FF479
:102750004076ADF800601024184F8DF80340032533
:102760008DF802506946384600F02EF8314638465A
:1027700000F0AFF80220ADF80000114E8DF80340D4
:102780008DF802506946304600F01EF802213046AE
:1027900000F0A1F86602ADF800608DF80340094C26
:1027A0008DF802506946204600F00EF8314620466A
:1027B00000F08FF8F8BD000000023000000C01406E
:1027C0000008014000100140F0B5CA78002502F071
:1027D0000F03D20601D58A7813430A784FF00F0E03
:1027E00012F0FF0F4FF001021CD004680F8802FAAC
:1027F00005F63740B74211D14FEA850C0EFA0CF7B7
:1028000024EA070703FA0CF43C43CF78282F02D0C0
:10281000482F02D002E0466100E006616D1C082DE1
:10282000E4D304600C88FF2C1ED944685FF00006D6
:1028300006F1080702FA07F50F882F40AF420FD1C3
:102840004FEA860C0EFA0CF7BC4303FA0CF73C4334
:10285000CF78282F00D14561CF78482F00D105616E
:10286000761C082EE4D34460F0BD0000F0B5144C93
:10287000002801DAE36900E06368420D120185B2C5
:10288000C0F301579540C0F30346032F05D0C202A1
:102890000AD50322B240934307E023F070626368D5
:1028A00023F07063636002E0AB4343F0706201B1F8
:1028B0002A43002801DAE261F0BD6260F0BD000049
:1028C000000001400246002092680A4200D0012028
:1028D00070474161704701617047000070B505465F
:1028E000FFF7C6FE80212448FEF774F823A000F00D
:1028F00089FF4FF49676304601F008F825A1274865
:10290000FDF7ACFF264C0BE0FFF7B2FE1BA000F07A
:1029100079FF304600F0FAFF1EA12048FDF79EFF28
:1029200060600028F0D002461EA11348FDF72AFD82
:10293000FFF79EFE104C50202146A0701AA0FDF714
:1029400015FD607C41280FD1402104F1D400FEF731
:1029500041F8402104F58A70FEF73CF800F03AF89F
:10296000012D03D0022D04D0002070BD0248D430C8
:1029700070BD174870BD0000F803002041542B5172
:10298000474E535352443D224E4D45412F524D43E5
:10299000220D0A0024474E524D4300008C0D0020AA
:1029A0001C000020257300003D3D3D3D3D3D3D3D6B
:1029B0003D3D3D3D4745544750524D433D3D3D3DD6
:1029C0003D3D3D3D3D3D3D3D3D3D0D0A25730000F6
:1029D0000C05002070B5002418A11948FDF73EFF32
:1029E000184E174D80357060F0B101192A19897899
:1029F000641C5174092CF8DB13A11148FDF72EFF5C
:102A0000706038B100228118AB188978521C997116
:102A10000A2AF8DB0A490DA09131FDF7A7FCA91D90
:102A200010A0FDF7A3FC012085F84900C0B200F01A
:102A300027F8FFF71DFE002070BD0000412C0000AC
:102A4000F80300201C0000204E2C00006C61746410
:102A50006174612E4C61746974756465202C2573F2
:102A6000200D0A006C6174646174612E6C6F6E6776
:102A70006974756465202C2573200D0A0000000020
:102A80002DE9F05F814C00284FF000007ED0211826
:102A9000401C8A79C0B2CA760328F8D303202118D3
:102AA000401C8A79C0B2CA770A28F8D394F8280063
:102AB0001B34303804F01AF8DFF8D4B1594603F06B
:102AC00033FF8046207B303804F010F8714903F062
:102AD0002BFF0746E07A303804F008F86E4903F01F
:102AE00023FF0646A07A303804F000F8DFF8ACA1E6
:102AF000514603F019FF0546E079217A303800EBA2
:102B000080026FF02F0909EB4200084403F0EEFF4A
:102B1000294603F0A7FE314603F0A4FE394603F030
:102B2000A1FE414603F09EFE03F070FE00225C4BC6
:102B300003F0ACFB054620780E463038A17800EB58
:102B4000C00202EB001001EB80006178554A01EBF6
:102B5000810102EB4101084403F0F0FC2A463346B0
:102B600003F0ECFA03F0B8FAC4F8310000201B3C83
:102B70002118401C4A7CC0B2CA770228F8D3022030
:102B80002118401C4A7C81F8282000E07AE0C0B27D
:102B90000928F5D394F830002034303803F0A6FF2C
:102BA000594603F0C1FE0746E07B303803F09EFF34
:102BB000384903F0B9FE0646A07B303803F096FF93
:102BC000354903F0B1FE8046607B303803F08EFF5C
:102BD000514603F0A9FE0546A07AE17A303800EBB1
:102BE000800209EB4200084403F080FF294603F00D
:102BF00039FE414603F036FE314603F033FE3946D6
:102C000003F030FE03F002FE0022254B03F03EFBF2
:102C1000064620780D46303803F068FF074614F862
:102C2000010C303803F062FF514603F08BFF394648
:102C300003F018FE03F0EAFD32462B4603F07EFA5D
:102C400003F04AFA206303F0E1FD02460F480B4609
:102C500015A15430FDF796FBE06A03F0D7FD02465C
:102C60000A480B4610A19430FDF78CFB07490FA0D2
:102C70005431FDF77BFBBDE8F05F04490FA09431B0
:102C8000FDF774BBE0642065BDE8F09F7804002088
:102C900000401C4600007A440000C8420000204169
:102CA00000004E40F0FDFFFF256600006C6174538C
:102CB000747241462C2573200D0A00006C6F6E5310
:102CC000747241462C2573200D0A0000FEE70000B7
:102CD00070B50E4D4FF4006421462846FFF7FBFD0A
:102CE000661031462846FFF7F6FD00F041F8214610
:102CF0002846FFF7EEFD00F03BF831462846FFF787
:102D0000E8FDBDE8704000F033B80000000C014061
:102D100070B5094D4FF4006421462846FFF7D9FDF0
:102D200061102846FFF7D7FD00F022F8214628461B
:102D3000BDE87040FFF7CFBD000C014070B50B4CF3
:102D40004FF400612046FFF7C6FD00F011F825158D
:102D500029462046FFF7BFFD00F00AF82946204625
:102D6000FFF7B7FDBDE8704000F002B8000C01406D
:102D70000320401EC0B2FCD2704700002DE9F04194
:102D8000BCB016460C4680461F469022274918A81C
:102D9000429DFDF7E5FD4FF480712548FDF71AFED1
:102DA000CDE91657D4E91401CDE91401D4E9120193
:102DB000CDE91201D4E91001CDE91001D4E90E01E9
:102DC000CDE90E01D4E90C01CDE90C01D4E90A01E9
:102DD000CDE90A01D4E90801CDE90801D4E90601E9
:102DE000CDE90601D4E90401CDE90401D4E90201E9
:102DF000CDE90201D4E90001CDE9000133460DA27D
:102E000018A90B48FDF7BEFA09490CA0FDF7AEFA68
:102E10000748FDF735FD84B2224605494046FDF7D7
:102E20005AFD3CB0E0B2BDE8F0810000DC8C000847
:102E30004C050020626332305F3100004A534F4E30
:102E4000454E44203D202573200D0A00FEE700007A
:102E500010B5094C02212046FFF73DFD4FF4FA70F2
:102E600000F054FD02212046FFF733FDBDE810407D
:102E70004FF4967000F04ABD000801407047000012
:102E800070B50F23C47801780122F4B1144C246882
:102E9000457804F4E064C4F5E064240AC4F104064F
:102EA000E3408478B5401C402C4301F1E02123012C
:102EB00081F80034007800F01F018A40400980004A
:102EC00000F1E020C0F8002170BD01F01F00824039
:102ED0004809800000F1E020C0F8802170BD0000AA
:102EE0000CED00E002490843024908607047000009
:102EF0000000FA050CED00E030B40021084B0A4652
:102F00005FF0000003EBC004401CC0B26254802894
:102F1000F8D3491CC9B20829F2D330BC00F0C2B8BA
:102F20004C07002030B1012807D100215FF0A70035
:102F300000F07CB90021A620FAE7704710B558B11F
:102F4000012810D10021C02000F070F90021A0203C
:102F5000BDE8104000F06AB90021C82000F066F911
:102F60000021A120F4E710BD30B5CC0801F0070323
:102F700001259D40EBB2064D05EBC005C808285C55
:102F80000AB1184302E063EA0000C043285530BD8F
:102F90004C07002038B50121082000F07BF94FF4E0
:102FA0004064ADF8004014208DF8030003203C4D30
:102FB0008DF8020069462846FFF706FC21462846A0
:102FC000FFF789FCC82000F0A1FC0021AE2000F032
:102FD0002DF90021084600F029F90021102000F009
:102FE00025F90021402000F021F90021812000F086
:102FF0001DF90021CF2000F019F90021A12000F0D7
:1030000015F90021C82000F011F90021A62000F0D8
:103010000DF90021A82000F009F900213F2000F05F
:1030200005F90021D32000F001F90021084600F045
:10303000FDF80021D52000F0F9F80021802000F0F3
:10304000F5F80021D92000F0F1F80021F12000F07E
:10305000EDF80021DA2000F0E9F80021122000F05C
:10306000E5F80021DB2000F0E1F80021302000F03D
:10307000DDF80021202000F0D9F80021022000F026
:10308000D5F800218D2000F0D1F80021142000F0A7
:10309000CDF8FFF731FF0021AF2000F0C7F838BDB1
:1030A000000C014070B5184E002400BF04F1B000C0
:1030B000C0B2002100F0BAF80021084600F0B6F8CE
:1030C0000021102000F0B2F8FFF702FE782000F097
:1030D00067F9FFF733FE402000F062F9FFF72EFE9C
:1030E0005FF0000506EBC500005D00F059F9FFF741
:1030F00025FE6D1CEDB2802DF4D3FFF709FE641C94
:10310000E4B2082CD2D370BD4C0700202DE9FC4F4F
:103110001C460E4682468B460190082B0DD0600758
:1031200000D0012000EBD40061084843C0B28146C2
:10313000203AD0B2009000204BE00620F7E7082CA0
:1031400013D00C2C18D0102C1BD0182C44D1009864
:10315000234900EBC00000BF01EB8001002711F8FC
:103160000850E80712D00B9A13E000981D4900EBB5
:10317000400001EB4001F1E700981B4900EB4000E3
:10318000EAE71A49009801EB0011E7E70B9828B32A
:10319000002231465046FFF7E7FE761C7F1C6D0883
:1031A000FFB2F6B2082FDCD30AF1010000F0FF0AEB
:1031B000082C0AD00199AAEB0100B0EB540F04D1FE
:1031C0000BF108008A4600F0FF0B08F101005E4693
:1031D000C0B280464845B2D3BDE8FC8F0122D8E793
:1031E0005A7A0008CE6D0008F66F00086A7400086D
:1031F0002DE9F8411E46154688460446079F0BE018
:103200003346414620460097FFF780FF082E0AD03C
:1032100004EB5600C4B26D1C2A78A2F120005E288F
:10322000EED9BDE8F881A41DE4B2F4E770B50C4610
:103230000546FFF74DFD782000F0B2F8FFF77EFD60
:103240000CB1402000E0002000F0AAF8FFF776FD66
:10325000284600F0A5F8FFF771FDBDE87040FFF7C4
:1032600057BD0000044A0029D16901D0014300E0A4
:103270008143D1617047000000100240044A0029D8
:10328000116901D0014300E08143116170470000E2
:1032900000100240044A0029916901D0014300E076
:1032A000814391617047000000100240044A0029E8
:1032B000D16801D0014300E08143D1607047000034
:1032C0000010024030B51F494A6812F00C031E4A34
:1032D00003D0042B01D0082B21D002604A680F23B1
:1032E0001A4C03EA1212A35C0268DA4042604B688F
:1032F000072505EA1323E35C22FA03F383604B6896
:1033000005EAD323E35CDA40C2604968032303EA99
:103310009131231F595CB2FBF1F1016130BD4A6864
:103320004B6802F470124FF0020413F4803F04EB78
:10333000924202D04B689B0301D5054B00E0024B43
:103340005A43CAE70010024000127A0074000020BD
:1033500000093D0070B50024104E25466006040E9D
:1033600040213046FFF7B7FA012000F0EBFA402188
:103370003046FFF7AEFA012000F0E4FA8021304633
:10338000FFF7A0FA08B144F00104012000F0DAFAD6
:103390006D1CEDB2082DE1D3204670BD0008014040
:1033A0002DE9F041114F002405464FF400683E1509
:1033B00028064146384602D5FFF78DFA01E0FFF7AF
:1033C00088FAFFF7D5FC31463846FFF784FAFFF755
:1033D000CFFC31463846FFF77CFA6806641C050EC0
:1033E000E4B2082CE4D3BDE8F0810000000C0140F9
:1033F0000CB50021264801910091026842F4803208
:1034000002604FF4A063026802F400320092019A55
:10341000521C0192009A12B9019A9A42F3D10268A1
:10342000920333D5012100911A490A6842F0100233
:103430000A600A6822F003020A600A6842F0020287
:103440000A604168416041684160416841F48061BF
:103450004160416821F47C114160416841F4E81108
:103460004160016841F08071016001688901FCD50B
:10347000416821F003014160416841F0020141606F
:103480004168C1F381010229FAD10CBD00910CBD44
:1034900000100240002002404FF0E021042808699B
:1034A00003D020F004000861704740F00400FAE700
:1034B00010B502F087FB012803D0BDE8104002F0F0
:1034C00077B810BD0F4810B5016841F001010160E7
:1034D00041680D4A1140416001680C4A1140016089
:1034E000016821F480210160416821F4FE014160FE
:1034F0004FF41F018160FFF77BFF05494FF000602B
:10350000086010BD001002400000FFF8FFFFF6FE4B
:1035100008ED00E070B5074C05468021204600F01C
:10352000C5F80028F9D029462046BDE8704000F0D3
:1035300055B900000044004010B50A4C40F2255136
:10354000204600F0BAF800280BD0204600F042F9DF
:103550000549D1F804218854D1F80401401CC1F870
:10356000040110BD00380140840C002070B5134CDC
:1035700040F225552946204600F09FF8012809D140
:10358000204600F027F9C0B200F07CFA2946204618
:1035900000F041F80821204600F088F801280BD1FE
:1035A000204600F017F9C0B200F06CFA2046BDE8E2
:1035B0007040082100F02CB870BD000000440040AD
:1035C00070B50D460646002404E0305DFFF7A2FF0B
:1035D000641CA4B2AC42F8D370BD000010B50A4C14
:1035E00040F22551204600F068F800280BD0204614
:1035F00000F0F0F80549D1F804218854D1F804010D
:10360000401CC1F8040110BD00480040940E002089
:10361000C943018070470A0A01219140C9430180D2
:1036200070470029818902D041F4005101E021F462
:103630000051818170470000174910B588420AD1B6
:1036400001218C032046FFF731FE2046BDE81040E3
:103650000021FFF72BBE1149884202D101214C0401
:1036600010E00F49884202D101218C040AE00D4983
:10367000884202D10121CC0404E00B4988420AD1DE
:1036800001210C052046FFF7F9FD2046BDE810405A
:103690000021FFF7F3BD10BD003801400044004099
:1036A00000480040004C004000500040024600200E
:1036B00012880A4200D00120704730B501F01F0285
:1036C00001240025C1F3421304FA02F2012B0FD0AA
:1036D000022B0FD0838A4FEA11210088134204FA8B
:1036E00001F400EA040001D000B10125284630BDF4
:1036F0008389F0E7038AEEE710B5C1F3421301F0C6
:103700001F040121A140012B07D0022B07D0143048
:10371000002A026805D00A4304E00C30F8E71030B4
:10372000F6E78A43026010BD30B50446008A85B0D2
:103730000D464CF6FF710840E98801432182A189BA
:103740004EF6F3100140A8882A8910436A890A437B
:103750001043A081A08A4FF6FF410840A989014388
:10376000A1826846FFF7AEFD1948844201D1039853
:1037700000E00298A189090400EBC00101EB0010F0
:10378000296801D5490000E08900B0FBF1F064220E
:10379000B0FBF2F109010B096FF018056B4300EB68
:1037A0008300A3891D044FF0320306D503EBC0004C
:1037B000B0FBF2F000F0070005E003EB0010B0FBF7
:1037C000F2F000F00F000843208105B030BD00008A
:1037D000003801408088C0F308007047C1F3080139
:1037E00081807047064910B50B1D04E00C88640603
:1037F000FCD51A80401C0278002AF7D110BD0000C9
:1038000000380140064910B50B1D04E00C88640621
:10381000FCD51A80401C0278002AF7D110BD0000A8
:1038200000440040FEE700002DE9F0410024164F5F
:103830000646802540213846FFF74DF80A2000F063
:1038400081F82E424FF01001384602D0FFF743F8BE
:1038500001E0FFF73EF86D080A2000F073F8402100
:103860003846FFF736F80A2000F06CF8641CE4B222
:10387000082CDFD310213846FFF72BF8BDE8F041C4
:103880000A2000F05FB8000000080140490050EA3B
:10389000C12018BF04204A0D18BF40F0010040F2BB
:1038A000FF72B2EB515F08BF40F00200012808BF71
:1038B0000520704730380A2801D2012070470020C7
:1038C0007047704710B50420FFF7E6FD0C480D4A1D
:1038D00001680D48B1FBF2F3B1FBF2F14FF47A72DB
:1038E00051430370012242804FF0E020026942F010
:1038F000020202614161016941F00101016110BDF3
:103900000800002040420F006800002070B5044607
:1039100002F058F901280CD0094D6888844203D37D
:10392000B4FBF0F001F01AFC6888B4FBF0F100FB86
:1039300011444FF47A706043BDE8704000F002B863
:103940006800002070B54FF0E02400226569094945
:10395000A36909784843A1699942FCD002D2A3EB3C
:10396000010302E0A5EB010633441A440B468242F0
:10397000F1D370BD6800002004490A885206FCD5C6
:10398000024AC1B2121D1180704700000038014088
:103990001CB54FF44070FFF7A5FAFFF793FFFFF750
:1039A000F9FA0020FFF7BEFA0020FFF7C7FAFEF78A
:1039B00079FBFEF7C3FE4FF4E134204601F040F9F5
:1039C000204601F091F9204601F0E8F9FFF740FAAE
:1039D000FFF792FA01240021102317A20846009451
:1039E000FFF706FC102318A2194600200094FFF7E9
:1039F000FFFBFFF757FB18A0FFF7F4FE01F032F8CA
:103A000000F026FDFEF7DEFB0028FBD1FEF70CFDE3
:103A1000FEF710FAFEF76AFB1448C0F8A0411448FC
:103A20000023CDE90040802212A1154802F09EF843
:103A300001F0F4FC00201CBD53544D33322B4243A3
:103A400032302B57494649004E42494F5420475087
:103A50005320424F41524400696E69742073746D63
:103A600033324C20434F4D31200D0A00008021425B
:103A70000000002073746172745F7461736B0000E6
:103A8000014C00080649D1F80421FF2A01D9002081
:103A900003E08854D1F80401401CC1F804017047C8
:103AA0008C0D00202DE9F041184C0F460546E668C4
:103AB0002068001D01F0C6F938B9206890F82C1074
:103AC00001208840216981432161681C07D137B1F9
:103AD0002168BDE8F0410E48091D01F0EBB92068EE
:103AE0003544B5424560216805D2A06BBDE8F04180
:103AF000091D01F0C7B9606B091D01F0C3F9A06A87
:103B0000854200D2A562BDE8F0810000840000205B
:103B1000AC1200202DE9F041054601F0D7F92D4CFB
:103B2000A068401CA06020682B4F10B1606930B3C2
:103B30002BE02560A068012827D1002606EB86002F
:103B400007EB800001F090F9761C202EF6D3234875
:103B500001F08AF92148143001F086F91F48283015
:103B600001F082F91D483C3001F07EF91B485030CD
:103B700001F07AF9194860631430A06305E0206809
:103B8000E96AC06A884200D82560606A401C6062A9
:103B90006864E96A0120226988401043206101EBD2
:103BA000810007EB8000291D01F084F901F0CAF9BA
:103BB000606900280CD02068E96AC06A884207D290
:103BC00007494FF080500860BFF34F8FBFF36F8FEE
:103BD000BDE8F08184000020DC0F00205C12002092
:103BE00004ED00E010B501F071F90E4C2068A0B9A9
:103BF0000D4801F039F90C48143001F035F90A4844
:103C0000E0601430206100221021052001F0E6FC64
:103C1000206010B105A101F06BFABDE8104001F081
:103C200091B90000C0000020C0120020546D7251F4
:103C30000000000070B5114E114C17E001F038FC87
:103C40003068B8B102F0ECF801F040F9F068C568EE
:103C5000281D01F0F7F8A068401EA0606068401EB3
:103C6000606001F06FF9284600F055F860680028A0
:103C7000E4D170BD02F0D4F8F8E7000098120020FB
:103C80008400002030B4026C0B46002A0BD0C168BF
:103C90001144C1604468A14201D30168C16030BCD5
:103CA0001846FCF718BE30BC70472DE9F041856B13
:103CB000174604460026026C82B1C7B1E068FCF7E3
:103CC0000AFEE168206C091AE1602268914202D282
:103CD0006168081AE060022F16D017E02068A8B9C2
:103CE000606801F0F7FF0646002060600EE0A06803
:103CF000FCF7F1FD216CA0680844A060616888426F
:103D000004D32068A06001E005B16D1E6D1CA563A1
:103D10003046BDE8F08110B50446006B01F044F96F
:103D20002046BDE8104001F03FB9000010484FF4B4
:103D30002051420706D0C01D0D4920F00700411A4E
:103D4000C1F520510B4A00230144C2E900030839A0
:103D5000103A21F0070111604B600B600B1AC0E9AB
:103D6000001393604FF000405360D0607047000034
:103D7000E8120020E4000020074C4FF08056074D69
:103D8000FFF758FF20680128FAD92E60BFF34F8F44
:103D9000BFF36F8FF4E70000DC0F002004ED00E0BC
:103DA0002DE9F047DDE909840E4617468246910069
:103DB0009946089DA522206BFCF704FE6FF00301D5
:103DC000206B01EB8701084420F00707780705D036
:103DD00040F22B3219A11EA0FCF7C8FA00202218CD
:103DE000315C82F83410315C11B1401C1028F6D3DC
:103DF000002684F84360202D00D31F25E562C4E926
:103E00001356201D01F03BF804F1180001F037F8BB
:103E10002461C5F120006462A061666584F8586081
:103E20004A465146384600F001FB2060B8F1000FC9
:103E300001D0C8F80040BDE8F08700002E2E5C4697
:103E400072656552544F535C7461736B732E6300DB
:103E50004572726F723A25732C25640D0A000000BA
:103E600030B5114900E011460A688242FBD34B6825
:103E70005C18844203D1406818444860084643688F
:103E80001C18944209D1084C103C2468A24209D065
:103E900052681A4442600A6812680260814200D087
:103EA000086030BD0460F9E7E400002070B500242C
:103EB00041600B4D0061914206D8D11A826991424E
:103EC00006D2011D286907E09A4203D2994201D324
:103ED000012403E0011DE86800F0D4FF204670BD16
:103EE000C000002010B5044600F0F0FFA06B28B120
:103EF0005FF0000401F026F8204610BD0124F9E728
:103F00002DE9F34100980F460026846C2CB940F649
:103F1000CE1216A11AA0FCF729FAA06BE16B884219
:103F200005D340F6CF1211A115A0FCF71FFAA06B24
:103F3000E16B88420CD294F945503A4669462046D6
:103F4000FFF7B3FE0646681C05D06D1C84F845508B
:103F50003046BDE8FC81606A0028F9D004F12400F5
:103F600001F012FF0028F3D00126F1E72E2E5C4667
:103F700072656552544F535C71756575652E6300AB
:103F80004572726F723A25732C25640D0A00000089
:103F9000F8B5054614480E46C068C068C468201DC0
:103FA00000F050FFE069012817D1A0692B464119A4
:103FB00032462046FFF77AFF78B1002003460146DB
:103FC00000902A46204602F013F830B907494FF412
:103FD000027201F11800FCF7C9F9616A01B02046CC
:103FE000BDE8F04008470000C0000020545F000812
:103FF00070B588B02F4E53E00498002806DADDE94A
:104000000601059A90470498002849DB069C6069E0
:1040100010B1201D00F016FF02A800F0A7F8054619
:1040200004980A283CD2DFE800F00505053B273854
:1040300005053B270598A169034601442A46204609
:10404000FFF734FF00282BD0616A20468847E069DB
:10405000012825D1002000900598A169002342186D
:104060001946204601F0C4FFD0B940F2213212A116
:1040700017A0FCF77BF913E00598A06128B94FF46D
:104080004E720DA112A0FCF771F9A0692B464119DF
:104090001A462046FFF70AFF02E0204600F084FFA0
:1040A00000231A4604A9306801F0D4FA0028A3D1ED
:1040B00008B070BDC00000202E2E5C4672656552AF
:1040C000544F535C74696D6572732E630000000079
:1040D0004572726F723A25732C25640D0A00000038
:1040E000F8B50D46064601F0E3F9684600F03EF8E3
:1040F0000446009810B101F093FEF8BD1148ADB12F
:1041000001690968D9B10025311B2A46006801F010
:1041100003F801F085FE0028EFD10B494FF08050E5
:104120000860BFF34F8FBFF36F8FF8BDA642EBD887
:1041300001F076FE21463046FFF72AFFF8BD012543
:10414000E2E70000C000002004ED00E00648416BFB
:10415000096829B1416BC968C968496881627047BB
:104160004FF0FF31FAE700008400002070B50546EB
:1041700001F036FD064E0446B068844203D200F0DA
:1041800009F8012000E0002028602046B46070BDDE
:10419000C0000020F8B5184D26E0C068C468066865
:1041A000201D00F04FFE616A20468847E069012823
:1041B0001AD1A0693044B04206D924616060211D43
:1041C000E86800F05FFE0FE0002003460146009023
:1041D0003246204601F00CFF30B9084940F29232D5
:1041E00001F11800FCF7C2F8E86801680029D4D191
:1041F0002969C5E90310F8BDC0000020545F00081C
:1042000008484068401C04D0F42207A111A0FCF724
:10421000ADF8502080F31188BFF34F8FBFF36F8F3D
:10422000FEE70000EC0000202E2E5C467265655211
:10423000544F535C706F727461626C655C5256448B
:10424000535C41524D5F434D335C706F72742E630B
:10425000000000004572726F723A25732C25640DC0
:104260000A000000074CE068016841B1C068002105
:10427000D0F80000FFF734FFFFF7BAFEF3E70121A3
:104280000020F7E7C00000202DE9F041044600F0CF
:104290001DFE94F9455004F1240610E0A06C20B1F5
:1042A00000212046FFF72CFE04E0606A48B130464A
:1042B00001F06AFD08B100F0EDFF6D1E6DB2002D3A
:1042C000ECDC4FF0FF3684F8456000F03BFE00F078
:1042D000FDFD94F9445004F1100709E0206948B14C
:1042E000384601F051FD08B100F0D4FF6D1E6DB2EB
:1042F000002DF3DC84F84460BDE8F04100F022BEFC
:104300002DE9F0410546002701F0D2F8324E306821
:1043100008B9FFF70BFDF06805424FD1002D4DD0D5
:10432000083568070BD005F00700C0F10800054408
:10433000680704D0BF2229A132A0FCF717F8002D8E
:104340003CD07068854239D82348103001460C684B
:1043500001E020460C466168A94202D2216800298A
:10436000F7D13168B0468C4228D0076821680160D7
:1043700060680837401B10280ED96619700704D0F2
:10438000EC2216A11FA0FBF7F1FF6068401B7060D4
:1043900030466560FFF764FD6268D8F80410404657
:1043A000891AC8F80410D8F80830994200D2816000
:1043B000D8F80C0002430020C4E9000201F030FDEF
:1043C000780705D04FF4967204A10EA0FBF7CEFF3C
:1043D0003846BDE8F0810000D40000202E2E5C4657
:1043E00072656552544F535C706F727461626C6594
:1043F0005C4D656D4D616E675C686561705F342E04
:10440000630000004572726F723A25732C25640DAB
:104410000A0000000449086818B10868026D521CBF
:1044200002650868704700008400002010B5031F73
:104430004FF080741C601B1F21F001011960191FCF
:10444000024B0B60143940380A6010BD014200086D
:104450002DE9F0416E4C4FF07E5600253046216A22
:1044600002F062FA02F022FB60633046616A02F0F9
:104470005BFA02F01BFBA0633046A16A02F054FA1B
:1044800002F014FBE063032140F28F1000F0ACFA5D
:104490006049884204D0BDE8F0415FA0FBF766BFE9
:1044A00062A0FBF763FF4FF4C0760122E52130469E
:1044B00000F0F4FA771C0122A221384600F0EEFA4F
:1044C0000122FA21B01C00F0E9FA4FF47A70FFF7EC
:1044D00039FA0122E521304600F0E0FA0122A2215A
:1044E000384600F0DBFA0222D7012188384600F076
:1044F000D5FA0221384600F077FA014650A0FBF7C2
:1045000035FF0222618840F2131000F0C7FA022240
:10451000A1884FF48A7000F0C1FA0222E18840F2CB
:10452000151000F0BBFA022221894FF48B7000F0C5
:10453000B5FA0222618940F2171000F0AFFA0222A8
:10454000A1894FF48C7000F0A9FA0222E1894FF49E
:10455000947000F0A3FA0222218A40F2291000F0A0
:104560009DFA0222618A4FF4957000F097FA0222B8
:10457000A18A40F22B1000F091FA0222E18A4FF456
:10458000967000F08BFA0222218B40F22D1000F081
:1045900085FA4FF4A001032240F2611000F07EFA88
:1045A000F71C02222946384600F078FA02213846E4
:1045B00000F01AFA0246294625A0FBF7D7FE022290
:1045C000618B4FF4817000F069FA0222A18B40F2F6
:1045D000031000F063FA01220021B01D00F05EFA22
:1045E000032222494FF4B17000F058FA0122DC2175
:1045F000304600F053FA03214FF4B57000F0F4F99F
:104600002063BDE8F041014619A0FBF7AFBE0000F2
:104610002800002000028300726E3833303220649C
:104620006576206964206572726F0A00726E383395
:10463000303220646576206964206F6B0A000000C8
:104640004846434F4E5354313D25640A0000000054
:10465000746D7031363D307825782C2052454743B3
:1046600046473D307825780A0000000077777700CC
:10467000434845434B53554D313D307825780A002A
:104680002DE9FF5F03214FF4B57000F0ADF99D4FA8
:10469000396B884207D0FFF7DBFE04B09AA0BDE873
:1046A000F05FFBF763BE0A20FFF74CF904210720F7
:1046B00000F09AF904460421082000F095F9054617
:1046C0000421092000F090F9064603462A462146B7
:1046D00091A0FBF74BFE204602F020FA396ABB4658
:1046E0000F4602F02FFADFF858A281465446CAF866
:1046F0000000284602F012FA394602F023FA054675
:104700006060304602F00AFA394602F01BFAA060F7
:1047100002F07CF807468846284602F077F80546FE
:104720000E46484602F072F88DE8E00102460B465C
:1047300084A0FBF71BFE04210B2000F055F907466F
:1047400004210C2000F050F9054604210D2000F052
:104750004BF9064603462A46394682A0FBF706FE79
:10476000384602F0DBF9DBF824100F4602F0EAF9D4
:104770008046E060284602F0D1F9394602F0E2F9BD
:1047800005462061304602F0C9F9394602F0DAF9EF
:10479000606102F03BF806460F46284602F036F804
:1047A00004460D46404602F031F88DE8F00002461E
:1047B0000B4676A0FBF7DAFD0421142000F014F973
:1047C00004460421152000F00FF9064604211620A6
:1047D00000F00AF90546002C00DAE443002E00DA66
:1047E000F643002D00DAC543204602F097F9DBF8C6
:1047F00028105F46884602F0A5F9CAF8180054460A
:10480000304602F08BF9414602F09CF9E0612846FF
:1048100002F084F9414602F095F920620321572005
:1048200000F0E2F801F0A1FE02460B4600205F49CD
:1048300001F02CFD01F050FC5D4960650144B1F5CB
:10484000A00F00D95B48606501F0E0FF02460B460F
:1048500059A0FBF78BFD0321332000F0C5F8064675
:10486000F86A01F082FE07460D46304601F07DFEF3
:104870003A462B4601F00AFD01F02EFCA06501F03E
:10488000C5FF02460B4631464FA0FBF76FFD20687F
:1048900001F0BCFF2A4D583DC5E90001606801F0F8
:1048A000B5FFC5E90201A06801F0B0FFC5E9040148
:1048B000E06801F0ABFFC5E90601206901F0A6FF41
:1048C000C5E90801606901F0A1FFC5E90A01A06915
:1048D00001F09CFFC5E90C01E06901F097FFC5E913
:1048E0000E01206A01F092FFC5E91001606D01F030
:1048F0008DFFC5E91201A06D01F088FFC5E9140123
:10490000BDE8FF9F28000020636865636B53756DE9
:10491000206572726F0D0A0055615F5245473D3048
:10492000782578202055625F5245473D30782578BC
:10493000202055635F5245473D307825780D0A00A9
:10494000280C002055613D25332E34662020556209
:104950003D25332E3466202055633D25332E3466A5
:104960000D0A000049615F5245473D3078257820A7
:104970002049625F5245473D3078257820204963C1
:104980005F5245473D307825780D0A0049613D2545
:10499000332E3466202049623D25332E3466202094
:1049A00049633D25332E34660D0A000000408F41D7
:1049B0000000E0BD00004842554665713D25322E9D
:1049C00034660D0A00000000456E657267655F522F
:1049D00045473D25642020456E657267653D25325B
:1049E0002E34660D0A0000002DE9F04105460E4602
:1049F0000220FEF7A7FFDFF8688020214046FDF780
:104A000068FFE8B20446FEF70FFF2809C0F3031061
:104A100000012118CFB2FEF707FF0520FEF792FF35
:104A200000252C4608E000BFFEF794FC00EB0525AE
:104A30003844641CC7B2E4B2B442F5D3F843C4B2FC
:104A4000FEF788FCA04201D04FF0FF352021404600
:104A5000FDF741FF0220FEF775FF2846BDE8F08113
:104A60000008014038B510208DF8030001208DF8B2
:104A700002007020084CADF8000069462046FDF7A2
:104A8000A3FE8020ADF8000048208DF803006946A1
:104A90002046FDF799FE38BD000801402DE9F0479A
:104AA000DFF8649088460546164620214846FDF703
:104AB00010FFE8B20446FEF7B7FE280A802101EB9A
:104AC0000010C0B22118CDB2FEF7AEFE00240CE0FB
:104AD000301BC100083928FA01F0C7B23846FEF78A
:104AE000A3FEE819641CC5B2E4B2B442F0D3E843B3
:104AF000C0B2FEF799FE20214846FDF7ECFEBDE866
:104B0000F0470220FEF71EBF000801402E4DADF514
:104B1000607D4FF480764FF4FA7700BFD5F8A4019A
:104B200038B30020C5F8A401FFF7AAFD3146A0A8BC
:104B3000FBF750FF314660A8FBF74CFF3146684653
:104B4000FBF748FF402140A8FBF744FF402150A855
:104B5000FBF740FF1DA16846FBF7B1FE0120FDF702
:104B6000BDFE040007D001466846FBF7A8FE2146BB
:104B700006E00120D6E718A16846FBF7A0FE16A1C3
:104B800040A8FBF79CFE17A16846FBF798FE0220A1
:104B9000FDF7A4FE040005D001466846FBF78FFE32
:104BA000214604E012A16846FBF789FE10A150A837
:104BB000FBF785FE50AA40A91048FDF795FC384642
:104BC00000F0CCFAAAE70000008021426C61746911
:104BD000747564653D00000033392E38393734343C
:104BE00035000000266C6F6E6769747564653D0062
:104BF0003131362E3333313339380000D00B0020B9
:104C00001CB500F063F909490220CDE90001420218
:104C1000002307A1094800F0A9FF0448001F00680D
:104C200000F0D2FABDE81C4000F08CB9040000206E
:104C300073656E645F7461736B0000000D4B000858
:104C400070B5054686B0012144F20400FEF722FB50
:104C50004FF40070ADF8100018208DF81300204EAE
:104C600003248DF8124004A93046FDF7ADFD301540
:104C7000ADF8100004208DF8130004A93046FDF7AC
:104C8000A3FD0020ADF804000095ADF80600ADF8D6
:104C90000800ADF80C000C20124DADF80A00694672
:104CA0002846FEF741FD012240F225512846FEF735
:104CB00023FD01212846FEF7B4FC2002FEF712F97D
:104CC00025208DF814008DF815408DF81640012030
:104CD0008DF8170005A8FEF7D3F806B070BD0000E8
:104CE00000080140003801402DE9F041804686B0BF
:104CF00001210420FEF7CEFA01214804FEF7B2FAA2
:104D0000244E3046FEF798FC0425ADF810500324DD
:104D10008DF812401820204F8DF8130004A9384652
:104D2000FDF752FD0820ADF810008DF8135004A9CE
:104D30003846FDF749FD2002FEF7D4F826208DF80D
:104D400014008DF815408DF8164001208DF81700DD
:104D500005A8FEF795F80021ADF80810ADF804108D
:104D60000C20ADF80610ADF80C10ADF80A00CDF827
:104D7000008069463046FEF7D7FC012240F22551FB
:104D80003046FEF7B9FC01213046FEF74AFC06B07A
:104D9000BDE8F081004400400008014070B50546C0
:104DA00086B001212448FEF775FA4FF48060ADF813
:104DB000100018208DF81300204E03248DF81240A7
:104DC00004A93046FDF700FDF014ADF810000420F2
:104DD0008DF8130004A93046FDF7F6FC0020ADF86D
:104DE00004000095ADF80600ADF80800ADF80C0021
:104DF0000C20134DADF80A0069462846FEF794FCD6
:104E0000012240F225512846FEF776FC0121284672
:104E1000FEF707FC2002FEF765F827208DF8140046
:104E20008DF815408DF8164001208DF8170005A863
:104E3000FEF726F806B070BD08000400000C014023
:104E400000480040D0E9013201699A60D0E90123AD
:104E50005A604A68824201D182684A600022026137
:104E60000868401E0860704700F108014FF0FF32EB
:104E7000C0E90112C1600161002101607047002199
:104E80000161704730B50B685A1C02D000F108026E
:104E900002E0026904E02246546825689D42FAD97E
:104EA00053684B6099608A60516008610168491CD1
:104EB000016030BD42684A6093688B6093685960B6
:104EC000916008610168491C01607047502080F3BF
:104ED0001188BFF34F8FBFF36F8F09494868401C9B
:104EE000486001280AD10748006810F0FF0F05D07C
:104EF0004FF4BD7204A10FA0FBF738BA7047000051
:104F0000EC00002004ED00E02E2E5C467265655238
:104F1000544F535C706F727461626C655C5256449E
:104F2000535C41524D5F434D335C706F72742E631E
:104F3000000000004572726F723A25732C25640DD3
:104F40000A00000010B5084C606828B940F28112D0
:104F500006A111A0FBF70AFA6068401E606001D14B
:104F600080F3118810BD0000EC0000202E2E5C465E
:104F700072656552544F535C706F727461626C65F8
:104F80005C525644535C41524D5F434D335C706FED
:104F900072742E63000000004572726F723A2573BE
:104FA0002C25640D0A00000070B500282AD0164D8B
:104FB000A0F108046068E968084205D14FF4A072C6
:104FC00012A11CA0FBF7D2F9206828B140F24112CF
:104FD0000EA118A0FBF7CAF96168E868014211D078
:104FE0002268002A0ED18143616000F061FA606896
:104FF0006968084468602046FEF732FFBDE87040EB
:1050000000F00EBF70BD0000D40000202E2E5C46C4
:1050100072656552544F535C706F727461626C6557
:105020005C4D656D4D616E675C686561705F342EC7
:10503000630000004572726F723A25732C25640D6F
:105040000A00000006484FF47A710068B0FBF1F1E5
:105050004FF0E020491E41610721016170470000C7
:105060000800002010B5FBF74FF9104C10280CD3A6
:1050700000F1E02090F8F0032178884205D24FF447
:105080002A720BA115A0FBF771F918480068A168F6
:1050900000F4E060884207D9BDE810404FF42E725A
:1050A00003A10EA0FBF762B910BD0000EC000020C8
:1050B0002E2E5C4672656552544F535C706F72744D
:1050C00061626C655C525644535C41524D5F434D86
:1050D000335C706F72742E63000000004572726F53
:1050E000723A25732C25640D0A0000000CED00E0D7
:1050F00010B5084B002200BF53F832401CB1521CBF
:10510000082AF9D310BD43F8321003EBC2014860FE
:1051100010BD00009C0F002070B515460E460446D9
:10512000FFF7D4FE94F944100020491C01D184F803
:10513000440094F94510491C01D184F84500FFF75B
:1051400001FFA06B28B92A46314604F1240000F083
:10515000D1F82046BDE87040FFF796B810B50400BE
:1051600012D00E48006B28B140F2CF420CA111A022
:10517000FBF7FCF800F09CF900212046FEF792FCBA
:1051800000F04EFE002807D10E494FF08050086015
:10519000BFF34F8FBFF36F8F10BD0000840000205E
:1051A0002E2E5C4672656552544F535C7461736B6E
:1051B000732E63004572726F723A25732C25640D4D
:1051C0000A00000004ED00E070B50546FFF77EFE22
:1051D000234C05B92568281DFFF734FE58B9E86A45
:1051E000204A00EB800152F8211021B901218140B1
:1051F000206988432061A86A18B105F11800FFF7FB
:1052000021FE606A401C60622068854207D1291D2A
:105210001548FFF74FFE6068401C606007E0A0681B
:10522000401EA0602846FEF776FDFEF78FFFFFF7D1
:1052300089FE6069002812D0206885420FD1206B5A
:1052400028B140F2654209A10DA0FBF78FF8104983
:105250004FF080500860BFF34F8FBFF36F8F70BD6A
:1052600084000020DC0F0020981200202E2E5C46C7
:1052700072656552544F535C7461736B732E630097
:105280004572726F723A25732C25640D0A00000076
:1052900004ED00E001490120C8617047840000204E
:1052A00070B50D46040005D140F6063207A10CA0EA
:1052B000FBF75CF80E48016820461831FFF7E2FD65
:1052C0002846BDE870400121FEF7ECBB2E2E5C465F
:1052D00072656552544F535C7461736B732E630037
:1052E0004572726F723A25732C25640D0A00000016
:1052F0008400002070B514460D46060005D140F626
:10530000313209A10DA0FBF731F810480168304691
:105310001831FFF7CFFD0CB14FF0FF35214628467D
:10532000BDE87040FEF7BEBB2E2E5C46726565522E
:10533000544F535C7461736B732E63004572726FCC
:10534000723A25732C25640D0A00000084000020A9
:1053500070B5040039D01D4DE06A2968C96A8842D9
:1053600033D2A069002804DB2868C06AC0F120009D
:10537000A061E16A164E01EB8101606906EB8101D3
:1053800088421FD1201DFFF75DFD012150B9E06A61
:1053900000EB800256F8222022B92A6901FA00F0B7
:1053A00082432A612868C06AE0622A698140114309
:1053B000296100EB800006EB8000211DBDE87040F4
:1053C000FFF778BD2868C06AE06270BD84000020E5
:1053D000DC0F002010B5040005D140F6C13205A154
:1053E00009A0FAF7C3FF0C48016A2160C068606039
:1053F00010BD00002E2E5C4672656552544F535C02
:105400007461736B732E63004572726F723A257309
:105410002C25640D0A000000840000201CB51748EC
:105420000024CDE900402346822215A1164800F051
:105430009DFB012803D100F0A1FD01280AD0401CEA
:105440001BD102B040F28472BDE810400FA114A03D
:10545000FAF78CBF502080F31188BFF34F8FBFF352
:105460006F8F06484FF0FF312C3881620121416176
:10547000C460BDE81C4000F061B81CBDB000002055
:1054800049444C4500000000793D00082E2E5C4642
:1054900072656552544F535C7461736B732E630075
:1054A0004572726F723A25732C25640D0A00000054
:1054B0000248016B491C0163704700008400002012
:1054C00070B5134C206B10B10120E06170BD00205D
:1054D000E06120690F4EB0FA80F0C0F11F0000EBD0
:1054E000800556F8250028B940F6F6220AA10FA03B
:1054F000FAF73CFF06EB850000F1080241684968B5
:105500004160914201D149684160C868206070BD26
:1055100084000020DC0F00202E2E5C467265655250
:10552000544F535C7461736B732E63004572726FDA
:10553000723A25732C25640D0A0000001CB5194928
:1055400008780190FF20087008788DF800009DF819
:105550000000154A00F0500010700720906005E030
:105560009DF800305B008DF80030401E9DF8003043
:105570001B06F5D4000200F4E0609060019808700A
:105580000A48016841F470010160016841F070410E
:105590000160FFF757FD00205060FAF77FFE002002
:1055A0001CBD000000E400E0EC00002020ED00E065
:1055B00010B5502080F31188BFF34F8FBFF36F8F6A
:1055C00000F014FB18B104494FF08050086000202F
:1055D00080F3118810BD000004ED00E02DE9F041DA
:1055E00017460E46050005D14FF4C47210A115A050
:1055F000FAF7BCFEBEB105FB06F05430FEF780FEA4
:1056000004000ED004F154007EB12060C4E90F56AE
:105610002046012100F0E0F884F850700021204677
:10562000A164BDE8F0810020E7E72460EEE7000018
:105630002E2E5C4672656552544F535C71756575CC
:10564000652E63004572726F723A25732C25640DC6
:105650000A0000002DE9FF4F002683B09B468A46D2
:10566000040005D140F2DC4251A156A0FAF77EFEBB
:10567000BAF1000F07D1206C28B140F2DD424CA1F5
:1056800050A0FAF773FE00F09DFA38B9059828B1DA
:105690004FF49C6246A14BA0FAF768FE4FF0000958
:1056A0004FF08057DFF82C81FFF710FCA56B4DB34E
:1056B00051462046E668FEF7E5FABBF1000F14D02C
:1056C000E660606A58B104F1240000BF00F05CFBA2
:1056D00028B1C8F80070BFF34F8FBFF36F8FFFF78B
:1056E00031FC012007B0BDE8F08F6D1EA563206876
:1056F00010B9FEF78FFE606020690028EFD004F13A
:105700001000E3E7059808B11EB106E0FFF71AFCA8
:1057100027E06846FFF75EFE0126FFF713FCFFF760
:10572000C7FEFFF7D3FB94F94400401C01D184F875
:10573000449094F94500401C01D184F84590FFF74E
:1057400001FC05A9684600F0CDF9002820460AD0E2
:10575000FEF79AFD00F064FB2046FEF7C3FB00282D
:10576000A2D00020BEE7FEF7BDFBD8B1206830B95B
:10577000FFF7ACFB6068FFF7EBFDFFF7E3FB04F11D
:1057800024000599FFF78CFD2046FEF77DFD00F013
:1057900047FB002888D1C8F80070BFF34F8FBFF3D4
:1057A0006F8F81E72046FEF76FFD00F039FB7BE746
:1057B0002E2E5C4672656552544F535C717565754B
:1057C000652E63004572726F723A25732C25640D45
:1057D0000A00000004ED00E070B50D46040005D19C
:1057E00040F21B121CA121A0FAF7C0FDFFF76EFBCF
:1057F000D4E90F20216802FB001161600021A16340
:105800002168A1600A46D4E90F01401E00FB012176
:10581000E16021464FF0FF3001F8440F487004F179
:1058200010004DB1FFF720FB04F12400FFF71CFB33
:10583000FFF788FB012070BD21690029F8D000F036
:10584000A3FA0028F4D00D494FF080500860BFF350
:105850004F8FBFF36F8FEBE72E2E5C46726565525C
:10586000544F535C71756575652E63004572726F98
:10587000723A25732C25640D0A00000004ED00E047
:105880002DE9FF4782B01D468A464FF0000804000C
:1058900005D140F2D92250A154A0FAF767FDBAF120
:1058A000000F07D1206C28B140F2DA224AA14FA0A4
:1058B000FAF75CFD022D08D1E06B012805D040F21B
:1058C000DB2245A149A0FAF751FD00F07BF938B978
:1058D000049828B140F2DE223FA144A0FAF746FD29
:1058E000464F4FF000094FF0805600BFFFF7EEFA29
:1058F000A06BE16B884207D3022D05D0049808B352
:10590000B8F1000F21D025E02A4651462046FEF787
:10591000CCF9A16C21B129462046FEF7F1FA05E049
:10592000616A19B104F1240000F02EFA20B13E6042
:10593000BFF34F8FBFF36F8FFFF704FB012006B05B
:10594000BDE8F087FFF7FEFA22E06846FFF742FD68
:105950004FF00108FFF7F6FAFFF7AAFDFFF7B6FAD6
:1059600094F94400401C01D184F8449094F9450016
:10597000401C01D184F84590FFF7E4FA04A9684679
:1059800000F0B0F830B12046FEF77EFC00F048FA97
:105990000020D4E7FFF79AFAA06BE16B884213D19D
:1059A000FFF7D0FA04F110000499FFF779FC2046C4
:1059B000FEF76AFC00F034FA002897D13E60BFF38E
:1059C0004F8FBFF36F8F91E7FFF7BCFA2046FEF7CA
:1059D0005BFC00F025FA89E72E2E5C467265655265
:1059E000544F535C71756575652E63004572726F17
:1059F000723A25732C25640D0A00000004ED00E0C6
:105A00002DE9F047984617468946040005D140F233
:105A10009F322BA12FA0FAF7A9FCB9F1000F07D1F3
:105A2000206C28B14FF4687225A12AA0FAF79EFCD9
:105A3000B8F1020F08D1E06B012805D040F2A13285
:105A40001FA124A0FAF792FCFFF70CFB5020EFF304
:105A5000118680F31188BFF34F8FBFF36F8FA06B58
:105A6000E16B884208D3B8F1020F05D05FF0000067
:105A700086F31188BDE8F08794F9455042464946BF
:105A80002046FEF712F9681C04D06D1C84F84550BE
:105A90000120EDE7A06C012520B141462046FEF72C
:105AA0002FFA06E0606A0028F2D004F1240000F02A
:105AB0006BF90028ECD0002FEAD03D60E8E7000049
:105AC0002E2E5C4672656552544F535C7175657538
:105AD000652E63004572726F723A25732C25640D32
